{
  "transactions": [
    {
      "hash": "0x64d07b0fe9daa913c06bf169523817887b9e299b352f594067b88ebe41ce1e79",
      "transactionType": "CALL",
      "contractName": null,
      "contractAddress": "0xf2a9b67cf4dc2f59a7f312e21f2932e997ab29d0",
      "function": "revokeSessionKey(address)",
      "arguments": [
        "0x6e3f1B87652Fd7446318c5b1fc0c2DBCC0E82d7f"
      ],
      "transaction": {
        "from": "0x661247a7eba8ef54125adffeeffa5ba3e6e81425",
        "to": "0xf2a9b67cf4dc2f59a7f312e21f2932e997ab29d0",
        "gas": "0xa034",
        "value": "0x0",
        "input": "0x84f4fc6a0000000000000000000000006e3f1b87652fd7446318c5b1fc0c2dbcc0e82d7f",
        "nonce": "0x8",
        "chainId": "0xaa36a7"
      },
      "additionalContracts": [],
      "isFixedGasLimit": false
    }
  ],
  "receipts": [
    {
      "status": "0x1",
      "cumulativeGasUsed": "0x25bb1c2",
      "logs": [
        {
          "address": "0xf2a9b67cf4dc2f59a7f312e21f2932e997ab29d0",
          "topics": [
            "0x17c796fb82086b3c9effaec517342e5ca9ed8fd78c339137ec082f748ab60cbe",
            "0x0000000000000000000000006e3f1b87652fd7446318c5b1fc0c2dbcc0e82d7f"
          ],
          "data": "0x",
          "blockHash": "0x3c59af8fb12123ec65954c890c771e9c3cb6bcba9cc81efcf17e2eec088e21a9",
          "blockNumber": "0xa2a444",
          "blockTimestamp": "0x69de5dc0",
          "transactionHash": "0x64d07b0fe9daa913c06bf169523817887b9e299b352f594067b88ebe41ce1e79",
          "transactionIndex": "0xef",
          "logIndex": "0x48a",
          "removed": false
        }
      ],
      "logsBloom": "0x00000000000000000000010000000000000000000000000000000000000000000000100000000040000000000000000000000000000000000000000000000000000000000000000000000000000000000000000000000000000000000000000000000000000000000000000000000000000000008000000000000000000000000000000000000000000000000000000000000000000000000000020000000000000000000000000000000000000000000000000000002000000000000000000000000000000000000000000000000000000000080000000000000000000000000200008000000000000000000000000000000000000000000000000000000000",
      "type": "0x2",
      "transactionHash": "0x64d07b0fe9daa913c06bf169523817887b9e299b352f594067b88ebe41ce1e79",
      "transactionIndex": "0xef",
      "blockHash": "0x3c59af8fb12123ec65954c890c771e9c3cb6bcba9cc81efcf17e2eec088e21a9",
      "blockNumber": "0xa2a444",
      "gasUsed": "0x73fd",
      "effectiveGasPrice": "0x1412c700",
      "from": "0x661247a7eba8ef54125adffeeffa5ba3e6e81425",
      "to": "0xf2a9b67cf4dc2f59a7f312e21f2932e997ab29d0",
      "contractAddress": null
    }
  ],
  "libraries": [],
  "pending": [],
  "returns": {},
  "timestamp": 1776180673680,
  "chain": 11155111,
  "commit": "df3aa35"
}